{
  "contractName": "Owner",
  "abi": [
    {
      "inputs": [],
      "stateMutability": "nonpayable",
      "type": "constructor"
    },
    {
      "inputs": [
        {
          "internalType": "string",
          "name": "",
          "type": "string"
        }
      ],
      "name": "logins",
      "outputs": [
        {
          "internalType": "address",
          "name": "",
          "type": "address"
        }
      ],
      "stateMutability": "view",
      "type": "function"
    },
    {
      "inputs": [],
      "name": "owner",
      "outputs": [
        {
          "internalType": "address",
          "name": "",
          "type": "address"
        }
      ],
      "stateMutability": "view",
      "type": "function"
    },
    {
      "inputs": [
        {
          "internalType": "uint256",
          "name": "",
          "type": "uint256"
        }
      ],
      "name": "products",
      "outputs": [
        {
          "internalType": "uint256",
          "name": "product_id",
          "type": "uint256"
        },
        {
          "internalType": "string",
          "name": "name",
          "type": "string"
        },
        {
          "internalType": "address",
          "name": "owner",
          "type": "address"
        },
        {
          "internalType": "uint256",
          "name": "value",
          "type": "uint256"
        },
        {
          "internalType": "enum Owner.Status",
          "name": "status",
          "type": "uint8"
        },
        {
          "internalType": "string",
          "name": "info",
          "type": "string"
        }
      ],
      "stateMutability": "view",
      "type": "function"
    },
    {
      "inputs": [
        {
          "internalType": "address",
          "name": "",
          "type": "address"
        }
      ],
      "name": "whiteList",
      "outputs": [
        {
          "internalType": "bool",
          "name": "",
          "type": "bool"
        }
      ],
      "stateMutability": "view",
      "type": "function"
    },
    {
      "inputs": [
        {
          "internalType": "string",
          "name": "_login",
          "type": "string"
        }
      ],
      "name": "register",
      "outputs": [],
      "stateMutability": "nonpayable",
      "type": "function"
    },
    {
      "inputs": [
        {
          "internalType": "address",
          "name": "wallet",
          "type": "address"
        }
      ],
      "name": "updateWhiteList",
      "outputs": [],
      "stateMutability": "nonpayable",
      "type": "function"
    },
    {
      "inputs": [
        {
          "internalType": "string",
          "name": "name",
          "type": "string"
        },
        {
          "internalType": "uint256",
          "name": "value",
          "type": "uint256"
        },
        {
          "internalType": "string",
          "name": "info",
          "type": "string"
        }
      ],
      "name": "createProduct",
      "outputs": [],
      "stateMutability": "nonpayable",
      "type": "function"
    },
    {
      "inputs": [
        {
          "internalType": "uint256",
          "name": "product_id",
          "type": "uint256"
        }
      ],
      "name": "approveProduct",
      "outputs": [],
      "stateMutability": "nonpayable",
      "type": "function"
    },
    {
      "inputs": [
        {
          "internalType": "uint256",
          "name": "product_id",
          "type": "uint256"
        }
      ],
      "name": "buyProduct",
      "outputs": [],
      "stateMutability": "payable",
      "type": "function"
    },
    {
      "inputs": [
        {
          "internalType": "uint256",
          "name": "product_id",
          "type": "uint256"
        }
      ],
      "name": "sellProduct",
      "outputs": [],
      "stateMutability": "nonpayable",
      "type": "function"
    },
    {
      "inputs": [],
      "name": "withdrawFee",
      "outputs": [],
      "stateMutability": "nonpayable",
      "type": "function"
    }
  ],
  "bytecode": "0x608060405234801561000f575f80fd5b50335f806101000a81548173ffffffffffffffffffffffffffffffffffffffff021916908373ffffffffffffffffffffffffffffffffffffffff1602179055506118a88061005c5f395ff3fe60806040526004361061009b575f3560e01c80637acc0b20116100635780637acc0b201461018f5780638642269e146101d05780638da5cb5b146101ec578063e941fa7814610216578063f2c298be1461022c578063ff38ec0f146102545761009b565b806327d554951461009f578063372c12b1146100c7578063492deb15146101035780634fcf89511461012b57806373373d3114610153575b5f80fd5b3480156100aa575f80fd5b506100c560048036038101906100c09190610e0f565b61027c565b005b3480156100d2575f80fd5b506100ed60048036038101906100e89190610e94565b6103f0565b6040516100fa9190610ed9565b60405180910390f35b34801561010e575f80fd5b5061012960048036038101906101249190610e0f565b61040d565b005b348015610136575f80fd5b50610151600480360381019061014c9190610e94565b6104f5565b005b34801561015e575f80fd5b506101796004803603810190610174919061102e565b6105da565b6040516101869190611084565b60405180910390f35b34801561019a575f80fd5b506101b560048036038101906101b09190610e0f565b610622565b6040516101c796959493929190611199565b60405180910390f35b6101ea60048036038101906101e59190610e0f565b6107a0565b005b3480156101f7575f80fd5b506102006109e2565b60405161020d9190611084565b60405180910390f35b348015610221575f80fd5b5061022a610a05565b005b348015610237575f80fd5b50610252600480360381019061024d919061102e565b610af7565b005b34801561025f575f80fd5b5061027a60048036038101906102759190611206565b610c03565b005b805f80600281111561029157610290611126565b5b600383815481106102a5576102a461128e565b5b905f5260205f2090600602016004015f9054906101000a900460ff1660028111156102d3576102d2611126565b5b14610313576040517f08c379a000000000000000000000000000000000000000000000000000000000815260040161030a90611305565b60405180910390fd5b5f8054906101000a900473ffffffffffffffffffffffffffffffffffffffff1673ffffffffffffffffffffffffffffffffffffffff163373ffffffffffffffffffffffffffffffffffffffff16146103a0576040517f08c379a00000000000000000000000000000000000000000000000000000000081526004016103979061136d565b60405180910390fd5b6001600384815481106103b6576103b561128e565b5b905f5260205f2090600602016004015f6101000a81548160ff021916908360028111156103e6576103e5611126565b5b0217905550505050565b6002602052805f5260405f205f915054906101000a900460ff1681565b80600280600281111561042357610422611126565b5b600383815481106104375761043661128e565b5b905f5260205f2090600602016004015f9054906101000a900460ff16600281111561046557610464611126565b5b146104a5576040517f08c379a000000000000000000000000000000000000000000000000000000000815260040161049c90611305565b60405180910390fd5b6001600384815481106104bb576104ba61128e565b5b905f5260205f2090600602016004015f6101000a81548160ff021916908360028111156104eb576104ea611126565b5b0217905550505050565b5f8054906101000a900473ffffffffffffffffffffffffffffffffffffffff1673ffffffffffffffffffffffffffffffffffffffff163373ffffffffffffffffffffffffffffffffffffffff1614610582576040517f08c379a00000000000000000000000000000000000000000000000000000000081526004016105799061136d565b60405180910390fd5b600160025f8373ffffffffffffffffffffffffffffffffffffffff1673ffffffffffffffffffffffffffffffffffffffff1681526020019081526020015f205f6101000a81548160ff02191690831515021790555050565b6001818051602081018201805184825260208301602085012081835280955050505050505f915054906101000a900473ffffffffffffffffffffffffffffffffffffffff1681565b60038181548110610631575f80fd5b905f5260205f2090600602015f91509050805f015490806001018054610656906113b8565b80601f0160208091040260200160405190810160405280929190818152602001828054610682906113b8565b80156106cd5780601f106106a4576101008083540402835291602001916106cd565b820191905f5260205f20905b8154815290600101906020018083116106b057829003601f168201915b505050505090806002015f9054906101000a900473ffffffffffffffffffffffffffffffffffffffff1690806003015490806004015f9054906101000a900460ff169080600501805461071f906113b8565b80601f016020809104026020016040519081016040528092919081815260200182805461074b906113b8565b80156107965780601f1061076d57610100808354040283529160200191610796565b820191905f5260205f20905b81548152906001019060200180831161077957829003601f168201915b5050505050905086565b8060018060028111156107b6576107b5611126565b5b600383815481106107ca576107c961128e565b5b905f5260205f2090600602016004015f9054906101000a900460ff1660028111156107f8576107f7611126565b5b14610838576040517f08c379a000000000000000000000000000000000000000000000000000000000815260040161082f90611305565b60405180910390fd5b5f60646001600386815481106108515761085061128e565b5b905f5260205f2090600602016003015461086b9190611415565b6108759190611483565b90505f816003868154811061088d5761088c61128e565b5b905f5260205f209060060201600301546108a791906114b3565b9050600385815481106108bd576108bc61128e565b5b905f5260205f2090600602016002015f9054906101000a900473ffffffffffffffffffffffffffffffffffffffff1673ffffffffffffffffffffffffffffffffffffffff166108fc8290811502906040515f60405180830381858888f1935050505015801561092e573d5f803e3d5ffd5b5033600386815481106109445761094361128e565b5b905f5260205f2090600602016002015f6101000a81548173ffffffffffffffffffffffffffffffffffffffff021916908373ffffffffffffffffffffffffffffffffffffffff1602179055506002600386815481106109a6576109a561128e565b5b905f5260205f2090600602016004015f6101000a81548160ff021916908360028111156109d6576109d5611126565b5b02179055505050505050565b5f8054906101000a900473ffffffffffffffffffffffffffffffffffffffff1681565b5f8054906101000a900473ffffffffffffffffffffffffffffffffffffffff1673ffffffffffffffffffffffffffffffffffffffff163373ffffffffffffffffffffffffffffffffffffffff1614610a92576040517f08c379a0000000000000000000000000000000000000000000000000000000008152600401610a899061136d565b60405180910390fd5b5f8054906101000a900473ffffffffffffffffffffffffffffffffffffffff1673ffffffffffffffffffffffffffffffffffffffff166108fc4790811502906040515f60405180830381858888f19350505050158015610af4573d5f803e3d5ffd5b50565b805f73ffffffffffffffffffffffffffffffffffffffff16600182604051610b1f9190611520565b90815260200160405180910390205f9054906101000a900473ffffffffffffffffffffffffffffffffffffffff1673ffffffffffffffffffffffffffffffffffffffff1614610ba3576040517f08c379a0000000000000000000000000000000000000000000000000000000008152600401610b9a90611580565b60405180910390fd5b33600183604051610bb49190611520565b90815260200160405180910390205f6101000a81548173ffffffffffffffffffffffffffffffffffffffff021916908373ffffffffffffffffffffffffffffffffffffffff1602179055505050565b3360025f8273ffffffffffffffffffffffffffffffffffffffff1673ffffffffffffffffffffffffffffffffffffffff1681526020019081526020015f205f9054906101000a900460ff1615610c8e576040517f08c379a0000000000000000000000000000000000000000000000000000000008152600401610c85906115e8565b60405180910390fd5b60036040518060c0016040528060038054905081526020018681526020013373ffffffffffffffffffffffffffffffffffffffff1681526020018581526020015f6002811115610ce157610ce0611126565b5b815260200184815250908060018154018082558091505060019003905f5260205f2090600602015f909190919091505f820151815f01556020820151816001019081610d2d91906117a3565b506040820151816002015f6101000a81548173ffffffffffffffffffffffffffffffffffffffff021916908373ffffffffffffffffffffffffffffffffffffffff160217905550606082015181600301556080820151816004015f6101000a81548160ff02191690836002811115610da857610da7611126565b5b021790555060a0820151816005019081610dc291906117a3565b50505050505050565b5f604051905090565b5f80fd5b5f80fd5b5f819050919050565b610dee81610ddc565b8114610df8575f80fd5b50565b5f81359050610e0981610de5565b92915050565b5f60208284031215610e2457610e23610dd4565b5b5f610e3184828501610dfb565b91505092915050565b5f73ffffffffffffffffffffffffffffffffffffffff82169050919050565b5f610e6382610e3a565b9050919050565b610e7381610e59565b8114610e7d575f80fd5b50565b5f81359050610e8e81610e6a565b92915050565b5f60208284031215610ea957610ea8610dd4565b5b5f610eb684828501610e80565b91505092915050565b5f8115159050919050565b610ed381610ebf565b82525050565b5f602082019050610eec5f830184610eca565b92915050565b5f80fd5b5f80fd5b5f601f19601f8301169050919050565b7f4e487b71000000000000000000000000000000000000000000000000000000005f52604160045260245ffd5b610f4082610efa565b810181811067ffffffffffffffff82111715610f5f57610f5e610f0a565b5b80604052505050565b5f610f71610dcb565b9050610f7d8282610f37565b919050565b5f67ffffffffffffffff821115610f9c57610f9b610f0a565b5b610fa582610efa565b9050602081019050919050565b828183375f83830152505050565b5f610fd2610fcd84610f82565b610f68565b905082815260208101848484011115610fee57610fed610ef6565b5b610ff9848285610fb2565b509392505050565b5f82601f83011261101557611014610ef2565b5b8135611025848260208601610fc0565b91505092915050565b5f6020828403121561104357611042610dd4565b5b5f82013567ffffffffffffffff8111156110605761105f610dd8565b5b61106c84828501611001565b91505092915050565b61107e81610e59565b82525050565b5f6020820190506110975f830184611075565b92915050565b6110a681610ddc565b82525050565b5f81519050919050565b5f82825260208201905092915050565b5f5b838110156110e35780820151818401526020810190506110c8565b5f8484015250505050565b5f6110f8826110ac565b61110281856110b6565b93506111128185602086016110c6565b61111b81610efa565b840191505092915050565b7f4e487b71000000000000000000000000000000000000000000000000000000005f52602160045260245ffd5b6003811061116457611163611126565b5b50565b5f81905061117482611153565b919050565b5f61118382611167565b9050919050565b61119381611179565b82525050565b5f60c0820190506111ac5f83018961109d565b81810360208301526111be81886110ee565b90506111cd6040830187611075565b6111da606083018661109d565b6111e7608083018561118a565b81810360a08301526111f981846110ee565b9050979650505050505050565b5f805f6060848603121561121d5761121c610dd4565b5b5f84013567ffffffffffffffff81111561123a57611239610dd8565b5b61124686828701611001565b935050602061125786828701610dfb565b925050604084013567ffffffffffffffff81111561127857611277610dd8565b5b61128486828701611001565b9150509250925092565b7f4e487b71000000000000000000000000000000000000000000000000000000005f52603260045260245ffd5b7f70726f647563652073746174757320696e76616c6964000000000000000000005f82015250565b5f6112ef6016836110b6565b91506112fa826112bb565b602082019050919050565b5f6020820190508181035f83015261131c816112e3565b9050919050565b7f796f75206e6f74206f776e6572000000000000000000000000000000000000005f82015250565b5f611357600d836110b6565b915061136282611323565b602082019050919050565b5f6020820190508181035f8301526113848161134b565b9050919050565b7f4e487b71000000000000000000000000000000000000000000000000000000005f52602260045260245ffd5b5f60028204905060018216806113cf57607f821691505b6020821081036113e2576113e161138b565b5b50919050565b7f4e487b71000000000000000000000000000000000000000000000000000000005f52601160045260245ffd5b5f61141f82610ddc565b915061142a83610ddc565b925082820261143881610ddc565b9150828204841483151761144f5761144e6113e8565b5b5092915050565b7f4e487b71000000000000000000000000000000000000000000000000000000005f52601260045260245ffd5b5f61148d82610ddc565b915061149883610ddc565b9250826114a8576114a7611456565b5b828204905092915050565b5f6114bd82610ddc565b91506114c883610ddc565b92508282039050818111156114e0576114df6113e8565b5b92915050565b5f81905092915050565b5f6114fa826110ac565b61150481856114e6565b93506115148185602086016110c6565b80840191505092915050565b5f61152b82846114f0565b915081905092915050565b7f74686973206c6f67696e206578697374000000000000000000000000000000005f82015250565b5f61156a6010836110b6565b915061157582611536565b602082019050919050565b5f6020820190508181035f8301526115978161155e565b9050919050565b7f746869732061646472657373206e6f7420696e2077686974656c6973740000005f82015250565b5f6115d2601d836110b6565b91506115dd8261159e565b602082019050919050565b5f6020820190508181035f8301526115ff816115c6565b9050919050565b5f819050815f5260205f209050919050565b5f6020601f8301049050919050565b5f82821b905092915050565b5f600883026116627fffffffffffffffffffffffffffffffffffffffffffffffffffffffffffffffff82611627565b61166c8683611627565b95508019841693508086168417925050509392505050565b5f819050919050565b5f6116a76116a261169d84610ddc565b611684565b610ddc565b9050919050565b5f819050919050565b6116c08361168d565b6116d46116cc826116ae565b848454611633565b825550505050565b5f90565b6116e86116dc565b6116f38184846116b7565b505050565b5b818110156117165761170b5f826116e0565b6001810190506116f9565b5050565b601f82111561175b5761172c81611606565b61173584611618565b81016020851015611744578190505b61175861175085611618565b8301826116f8565b50505b505050565b5f82821c905092915050565b5f61177b5f1984600802611760565b1980831691505092915050565b5f611793838361176c565b9150826002028217905092915050565b6117ac826110ac565b67ffffffffffffffff8111156117c5576117c4610f0a565b5b6117cf82546113b8565b6117da82828561171a565b5f60209050601f83116001811461180b575f84156117f9578287015190505b6118038582611788565b86555061186a565b601f19841661181986611606565b5f5b828110156118405784890151825560018201915060208501945060208101905061181b565b8683101561185d5784890151611859601f89168261176c565b8355505b6001600288020188555050505b50505050505056fea2646970667358221220f0e334728a1feff132ea50019f0b45edecdfd875870474af843349cfdc65892764736f6c63430008150033",
  "immutableReferences": {},
  "source": "// SPDX-License-Identifier: Apache-2.0\npragma solidity ^0.8.0;\n\ncontract Owner {\n  address public owner;\n\n  constructor() {\n    owner = msg.sender;\n  }\n\n  enum Status {\n    Created,\n    Approved,\n    Closed\n  }\n\n  mapping(string => address) public logins;\n  mapping(address => bool) public whiteList;\n\n  modifier checkOfWhiteLists(address adr) {\n    require(!whiteList[adr], \"this address not in whitelist\");\n    _;\n  }\n\n  modifier checkStatusProduct(uint product_id, Status status) {\n    require(\n      products[product_id].status == status,\n      \"produce status invalid\"\n    );\n    _;\n  }\n\n  modifier onlyOwner() {\n    require(msg.sender == owner, \"you not owner\");\n    _;\n  }\n\n  modifier loginNotExists(string memory _login) {\n    require(logins[_login] == address(0), \"this login exist\");\n    _;\n  }\n\n  function register(string memory _login) public loginNotExists(_login) {\n    logins[_login] = msg.sender;\n  }\n\n  function updateWhiteList(address wallet) public onlyOwner {\n    whiteList[wallet] = true;\n  }\n\n  struct Product {\n    uint product_id;\n    string name;\n    address owner;\n    uint value;\n    Status status;\n    string info;\n  }\n\n  Product[] public products;\n\n  function createProduct(\n    string memory name,\n    uint value,\n    string memory info\n  ) public checkOfWhiteLists(msg.sender) {\n    products.push(\n      Product(\n        products.length,\n        name,\n        msg.sender,\n        value,\n        Status.Created,\n        info\n      )\n    );\n  }\n\n  function approveProduct(\n    uint product_id\n  ) public checkStatusProduct(product_id, Status.Created) onlyOwner {\n    products[product_id].status = Status.Approved;\n  }\n\n  function buyProduct(\n    uint product_id\n  ) public payable checkStatusProduct(product_id, Status.Approved) {\n    uint256 fee = (products[product_id].value * 1) / 100;\n    uint value = products[product_id].value - fee;\n\n    payable(products[product_id].owner).transfer(value);\n\n    products[product_id].owner = msg.sender;\n    products[product_id].status = Status.Closed;\n  }\n\n  function sellProduct(\n    uint product_id\n  ) public checkStatusProduct(product_id, Status.Closed) {\n    products[product_id].status = Status.Approved;\n  }\n\n  function withdrawFee() public onlyOwner {\n    payable(owner).transfer(address(this).balance);\n  }\n}\n",
  "sourcePath": "/home/danbel/geth-contract-testing/truffletest/contracts/Contract.sol",
  "compiler": {
    "name": "solc",
    "version": "0.8.21+commit.d9974bed.Emscripten.clang"
  },
  "schemaVersion": "3.4.16",
  "updatedAt": "2024-03-28T17:30:17.673Z",
  "devdoc": {
    "kind": "dev",
    "methods": {},
    "version": 1
  },
  "userdoc": {
    "kind": "user",
    "methods": {},
    "version": 1
  }
}